:020000040800F2
:1000000000000520E5320008550A0008570A0008DC
:10001000590A00085B0A00085D0A00080000000099
:100020000000000000000000000000005F0A00085F
:10003000610A000800000000630A0008650A000861
:1000400035330008353300083533000835330008F0
:1000500035330008353300083533000835330008E0
:1000600035330008353300083533000835330008D0
:1000700035330008353300083533000835330008C0
:1000800035330008353300083533000835330008B0
:1000900035330008353300083533000835330008A0
:1000A0003533000835330008353300083533000890
:1000B0003533000835330008353300083533000880
:1000C0003533000835330008353300083533000870
:1000D0003533000835330008353300086D0A000851
:1000E0007D0A000835330008353300083533000831
:1000F0003533000835330008353300083533000840
:10010000353300083533000835330008353300082F
:10011000353300083533000835330008353300081F
:10012000353300083533000835330008353300080F
:1001300035330008353300083533000835330008FF
:1001400035330008353300083533000835330008EF
:1001500035330008353300083533000835330008DF
:1001600035330008353300083533000835330008CF
:10017000353300083533000835330008000000002F
:1001800035330008353300083533000835330008AF
:10019000353300083533000835330008353300089F
:1001A000353300083533000835330008353300088F
:1001B000353300083533000835330008353300087F
:0801C000353300083533000857
:1001D00010B5054C237833B9044B13B10448AFF381
:1001E00000800123237010BD70000020000000007B
:1001F000883C000808B5034B1BB103490348AFF323
:10020000008008BD0000000074000020883C000849
:10021000034613F8012B002AFBD1181A0138704746
:1002200001F0FF01102A2BDB10F0070F08D010F8A7
:10023000013B013A8B422DD010F0070F42B3F6D1AB
:10024000F0B441EA012141EA014122F007047FF0C4
:1002500000070023F0E80256083C85EA010586EA1B
:10026000010685FA47F5A3FA87F586FA47F6A5FA57
:1002700087F68EB9EED1F0BC01F0FF0102F0070263
:1002800032B110F8013B013A83EA010313B1F8D10E
:100290000020704701387047002D06BF35460338EF
:1002A000073815F0010F07D1013015F4807F02BF28
:1002B000013015F4C03F0130F0BC0138704700BF79
:1002C00053B94AB9002908BF00281CBF4FF0FF31BD
:1002D0004FF0FF3000F074B9ADF1080C6DE904CEB9
:1002E00000F006F8DDF804E0DDE9022304B0704711
:1002F0002DE9F047089D04468E46002B4DD18A42D9
:10030000944669D9B2FA82F252B101FA02F3C2F10B
:10031000200120FA01F10CFA02FC41EA030E94409C
:100320004FEA1C48210CBEFBF8F61FFA8CF708FBBD
:1003300016E341EA034306FB07F199420AD91CEB95
:10034000030306F1FF3080F01F81994240F21C81C7
:10035000023E63445B1AA4B2B3FBF8F008FB10330F
:1003600044EA034400FB07F7A7420AD91CEB040444
:1003700000F1FF3380F00A81A74240F20781644414
:10038000023840EA0640E41B00261DB1D440002399
:10039000C5E900433146BDE8F0878B4209D9002DFD
:1003A00000F0EF800026C5E9000130463146BDE887
:1003B000F087B3FA83F6002E4AD18B4202D38242F1
:1003C00000F2F980841A61EB030301209E46002DA0
:1003D000E0D0C5E9004EDDE702B9FFDEB2FA82F2F5
:1003E000002A40F09280A1EB0C014FEA1C471FFA53
:1003F0008CFE0126200CB1FBF7F307FB131140EA3A
:1004000001410EFB03F0884208D91CEB010103F106
:10041000FF3802D2884200F2CB804346091AA4B2C8
:10042000B1FBF7F007FB101144EA01440EFB00FE9C
:10043000A64508D91CEB040400F1FF3102D2A64501
:1004400000F2BB800846A4EB0E0440EA03409CE7A0
:10045000C6F12007B34022FA07FC4CEA030C20FA4D
:1004600007F401FA06F31C43F9404FEA1C4900FA6D
:1004700006F3B1FBF9F8200C1FFA8CFE09FB1811EA
:1004800040EA014108FB0EF0884202FA06F20BD95D
:100490001CEB010108F1FF3A80F08880884240F2AD
:1004A0008580A8F102086144091AA4B2B1FBF9F0F1
:1004B00009FB101144EA014100FB0EFE8E4508D9EC
:1004C0001CEB010100F1FF346CD28E456AD9023871
:1004D000614440EA0840A0FB0294A1EB0E01A14256
:1004E000C846A64656D353D05DB1B3EB080261EBC4
:1004F0000E0101FA07F722FA06F3F1401F43C5E99E
:10050000007100263146BDE8F087C2F12003D840D3
:100510000CFA02FC21FA03F3914001434FEA1C4715
:100520001FFA8CFEB3FBF7F007FB10360B0C43EA07
:10053000064300FB0EF69E4204FA02F408D91CEBB7
:10054000030300F1FF382FD29E422DD902386344B5
:100550009B1B89B2B3FBF7F607FB163341EA034155
:1005600006FB0EF38B4208D91CEB010106F1FF38A4
:1005700016D28B4214D9023E6144C91A46EA00469B
:1005800038E72E46284605E70646E3E61846F8E62D
:100590004B45A9D2B9EB020864EB0C0E0138A3E776
:1005A0004646EAE7204694E74046D1E7D0467BE757
:1005B000023B614432E7304609E76444023842E7CF
:1005C000704700BF72B6FEE700B595B0302200213B
:1005D00008A802F0D5FE0023039304930593069325
:1005E000079301F081FA204B1A6C42F080521A6492
:1005F0001B6C03F080530193019B1C4A136823F486
:10060000404343F480431360136803F44043029370
:10061000029B012308934FF4A023099302230E9316
:100620004FF480020F9204221092482211921293EA
:100630000323139308A800F0A9FA80B90F230393AA
:1006400002210491002305934FF4805206920793F0
:1006500003A800F01FFD20B915B05DF804FBFFF7FB
:10066000B1FFFFF7AFFF00BF00380240007000404D
:1006700010B5A2B001F066FAFFF7A6FF00F042F84D
:1006800000F00AF900F072F902F092FD00232093C5
:1006900020AA21921AAC1A936360A360E3602361DD
:1006A000636101231A9302231C9303231E93209456
:1006B0001BAB21931CAB1B931DAB21931EAB1D9356
:1006C0001FAB21930EE022680B4901A802F050FFF6
:1006D00001A8FFF79DFD0A2382B201A9074802F095
:1006E000ECF96468002CEED1642001F049FA802115
:1006F000034801F083F9F7E7A03C00088C000020D4
:10070000000402402DE9F04F8DB0002407940894B6
:1007100009940A940B945B4B1A6B42F004021A631F
:100720001A6B02F004020092009A1A6B42F08002E7
:100730001A631A6B02F080020192019A1A6B42F05E
:1007400001021A631A6B02F001020292029A1A6BFA
:1007500042F002021A631A6B02F002020392039A39
:100760001A6B42F010021A631A6B02F01002049224
:10077000049A1A6B42F008021A631A6B02F008021C
:100780000592059A1A6B42F040021A631B6B03F044
:1007900040030693069BDFF8F890224644F281015D
:1007A000484601F025F9384D22464021284601F0FF
:1007B0001FF94FF4005BCDF81CB04FF48813089379
:1007C0000994DFF8D0A007A9504601F015F83223AC
:1007D00007934FF00208CDF82080099403270A9769
:1007E0000B260B9607A9504601F006F886230793BF
:1007F000CDF8208009940A970B9607A9234800F0AA
:10080000FBFF44F2810307934FF0010ACDF820A0CB
:1008100009940A9407A9484600F0EEFFCDF81CB0F1
:10082000CDF8208009940A970B9607A9484600F056
:10083000E3FF40230793CDF820A009940A9407A969
:10084000284600F0D9FF802307930894099407A94C
:10085000284600F0D1FF4FF420530793CDF82080B5
:1008600009940A970B9607A9284600F0C5FF22466F
:100870002146282000F032F9282000F065F90DB05B
:10088000BDE8F08F0038024000180240000002402E
:10089000000402400008024008B50B480B4B0360FF
:1008A0004FF4E133436000238360C36003610C2293
:1008B00042618361C3610362436202F082F900B95D
:1008C00008BDFFF77FFEFBE78C00002000480040DA
:1008D00010B5A8B0044600212391249125912691BA
:1008E0002791842202A802F04BFD22681C4B9A42F9
:1008F00001D028B010BD4FF48073029302A800F01D
:10090000A5FC50BB174B1A6C42F480221A641A6C77
:1009100002F480220092009A1A6B42F008021A63D5
:100920001B6B03F008030193019B4FF44073239367
:10093000022324930024259403232693072327933B
:1009400023A9094800F058FF22460121272000F082
:10095000C5F8272000F0F8F8CBE7FFF733FED1E722
:100960000048004000380240000C024008B50C4826
:100970004FF0A0430360062343600222C2600023BD
:10098000036182610122C26103624362C262036346
:1009900002F048F900B908BDFFF714FEFBE700BFFD
:1009A0001401002070B5AAB00446002125912691BB
:1009B000279128912991842204A802F0E1FC236860
:1009C000B3F1A04F01D02AB070BD4FF400130493CF
:1009D00004A800F03BFC002835D11C4C236B43F0ED
:1009E00001032363236B03F001030193019B4FF485
:1009F000E853259302232693002527950323289364
:100A00000A232993124E25A9304600F0F5FE4FF433
:100A1000007325932695279525A9304600F0ECFE16
:100A2000636B43F080036363636B03F080030293A3
:100A3000029B636C43F480436364636C03F4804300
:100A40000393039BBFE7FFF7BDFDC6E700380240F5
:100A500000000240FEE7FEE7FEE7FEE7FEE7704724
:100A60007047704708B501F079F808BD08B502482D
:100A700001F050FC08BD00BF8C00002008B54FF409
:100A8000005000F0C5FF08BD82B00A4B1A6C42F05E
:100A900080521A641A6C02F080520092009A5A6CCA
:100AA00042F480425A645B6C03F480430193019BDF
:100AB00002B07047003802400649CB6823F4E06377
:100AC0001B041B0C000200F4E0600343024A1A43BB
:100AD000CA60704700ED00E00000FA0500B5174B52
:100AE000DB68C3F30223C3F1070CBCF1040F28BF7A
:100AF0004FF0040C03F1040EBEF1060F14D9033BB2
:100B00004FF0FF3E0EFA0CFC21EA0C0199400EFA60
:100B100003F322EA03031943002807DB0901C9B2E2
:100B2000074B19545DF804FB0023E9E700F00F00C0
:100B30000901C9B2034B1954F4E700BF00ED00E00E
:100B400000E400E014ED00E0002807DB00F01F02E5
:100B5000400901239340024A42F82030704700BF09
:100B600000E100E00138B0F1807F0BD24FF0E023CC
:100B70005861054AF02182F823100020986107226D
:100B80001A6170470120704700ED00E0002800F076
:100B9000FF8170B582B00446036813F0010F29D0BD
:100BA000954B9B6803F00C03042B1AD0924B9B6867
:100BB00003F00C03082B0FD06368B3F5803F40D0DF
:100BC000002B54D18C4B1A6822F480321A601A68B8
:100BD00022F480221A6039E0874B5B6813F4800F9F
:100BE000EAD0854B1B6813F4003F03D06368002BE9
:100BF00000F0D081236813F0020F74D07E4B9B6805
:100C000013F00C0F5ED07C4B9B6803F00C03082B99
:100C100053D0E368002B00F08980774A136843F0D3
:100C20000103136000F0A6FF0546734B1B6813F029
:100C3000020F72D100F09EFF401B0228F5D903205D
:100C4000ADE16D4A136843F48033136063682BB3DE
:100C500000F090FF0546684B1B6813F4003FC9D1B4
:100C600000F088FF401B6428F5D9032097E1B3F515
:100C7000A02F09D0604B1A6822F480321A601A68DB
:100C800022F480221A60E1E75B4B1A6842F480226A
:100C90001A601A6842F480321A60D7E700F06AFFDF
:100CA0000546554B1B6813F4003FA3D000F062FFCC
:100CB000401B6428F5D9032071E14F4B5B6813F4A6
:100CC000800FA6D14C4B1B6813F0020F03D0E368D2
:100CD000012B40F06181484A136823F0F803216931
:100CE00043EAC1031360236813F0080F46D0636919
:100CF00083B3414A536F43F00103536700F03AFF57
:100D000005463D4B5B6F13F0020F37D100F032FF09
:100D1000401B0228F5D9032041E1374A136823F02C
:100D2000F803216943EAC1031360DCE7324A136820
:100D300023F00103136000F01DFF05462E4B1B68D6
:100D400013F0020FCFD000F015FF401B0228F5D999
:100D5000032024E1284A536F23F00103536700F076
:100D600009FF0546244B5B6F13F0020F06D000F01D
:100D700001FF401B0228F5D9032010E1236813F07E
:100D8000040F7DD01C4B1B6C13F0805F1ED11A4BDF
:100D90001A6C42F080521A641B6C03F0805301936A
:100DA000019B0125154B1B6813F4807F10D0A368AD
:100DB000012B25D0002B3BD10F4B1A6F22F00102E3
:100DC0001A671A6F22F004021A671EE00025E9E78D
:100DD0000A4A136843F48073136000F0CBFE0646A2
:100DE000064B1B6813F4807FE1D100F0C3FE801B2B
:100DF0006428F5D90320D2E000380240007000409A
:100E00006E4A136F43F001031367A36833B300F016
:100E1000B1FE0646694B1B6F13F0020F2FD100F095
:100E2000A9FE801B41F288339842F3D90320B6E033
:100E3000052B09D0614B1A6F22F001021A671A6F55
:100E400022F004021A67E0E75C4B1A6F42F00402DA
:100E50001A671A6F42F001021A67D6E700F08AFE9D
:100E60000646564B1B6F13F0020F08D000F082FEAF
:100E7000801B41F288339842F3D903208FE0FDB9FB
:100E8000A369002B00F08A804C4A926802F00C02A1
:100E9000082A58D0022B19D0484A136823F08073CF
:100EA000136000F067FE0446444B1B6813F0007F9C
:100EB00047D000F05FFE001B0228F5D903206EE04A
:100EC0003E4A136C23F080531364D9E73B4A1368FE
:100ED00023F08073136000F04DFE0546374B1B680E
:100EE00013F0007F06D000F045FE401B0228F5D924
:100EF000032054E0E369226A1343626A43EA8213DF
:100F0000A26A5208013A43EA0243E26A43EA0263F0
:100F100043F00053294A5360136843F08073136011
:100F200000F028FE0446254B1B6813F0007F06D115
:100F300000F020FE001B0228F5D903202FE000203E
:100F40002DE000202BE01D4A5268012B29D002F42D
:100F50008003E1698B4226D102F03F03216A8B4274
:100F600023D1616A47F6C0731340B3EB811F1ED1D2
:100F700002F44031A36A5B08013BB1EB034F18D187
:100F800002F07062E36AB2EB036F14D1002006E056
:100F900001207047012002E0012000E0002002B0A3
:100FA00070BD0120FBE70120F9E70120F7E70120F0
:100FB000F5E70120F3E70120F1E700BF0038024028
:100FC00008B5314B9B6803F00C03042B57D0082B5A
:100FD00057D12D4B5A6802F03F025B6813F4800F23
:100FE0002AD0294B5968C1F3881C4FEA4C11B1EB48
:100FF0000C006EEB0E0E4FEA8E1343EA90638101F4
:10100000091A63EB0E03DB0043EA5173C90011EBCD
:101010000C0C43F10003590200234FEA4C2041EA33
:10102000DC51FFF74DF9184B5B68C3F30143013303
:101030005B00B0FBF3F025E0134B5968C1F3881C4B
:101040004FEA4C11B1EB0C006EEB0E0E4FEA8E1313
:1010500043EA90638101091A63EB0E03DB0043EA64
:101060005173C90011EB0C0C43F1000399020023EA
:101070004FEA8C2041EA9C51FFF722F9D3E703485D
:1010800000E0034808BD00BF0038024000127A00AB
:101090000024F400002800F0A08070B50D4604463E
:1010A000524B1B6803F00F038B420BD24F4A13685D
:1010B00023F00F030B431360136803F00F038B42FD
:1010C00040F08D80236813F0020F17D013F0040F47
:1010D00004D0474A936843F4E0539360236813F0C5
:1010E000080F04D0424A936843F460439360404A37
:1010F000936823F0F003A1680B439360236813F017
:10110000010F31D06368012B20D0022B25D0384A43
:10111000126812F0020F64D035498A6822F0030287
:1011200013438B6000F026FD0646314B9B6803F0AD
:101130000C036268B3EB820F16D000F01BFD801B1E
:1011400041F288339842F0D9032045E0284A1268DA
:1011500012F4003FE0D101203EE0254A126812F06F
:10116000007FD9D1012037E0204B1B6803F00F032B
:10117000AB420AD91D4A136823F00F032B431360B7
:10118000136803F00F03AB422DD1236813F0040F53
:1011900006D0174A936823F4E053E1680B43936049
:1011A000236813F0080F07D0114A936823F46043B3
:1011B000216943EAC1039360FFF702FF0C4B9B6870
:1011C000C3F303130B4AD35CD8400B4B18600B4B93
:1011D000186800F091FC002070BD012070470120CC
:1011E000FAE70120F8E70120F6E700BF003C0240E3
:1011F00000380240A43C0008080000200400002041
:10120000014B1868704700BF0800002008B5FFF7C1
:10121000F7FF044B9B68C3F38223034AD35CD84097
:1012200008BD00BF00380240B43C000808B5FFF715
:10123000E7FF044B9B68C3F34233034AD35CD840B7
:1012400008BD00BF00380240B43C0008F0B583B0D0
:101250000446066816F001060DD0A74B9A6822F4E2
:1012600000029A609A68416B0A439A60436B002BB4
:1012700000F039810026256815F4002511D09E4A1A
:10128000D2F88C3023F44013E16B0B43C2F88C305E
:10129000E36BB3F5801F00F02881002B00F027815D
:1012A0000025236813F4801F0FD0934AD2F88C30A6
:1012B00023F44003216C0B43C2F88C30236CB3F54C
:1012C000800F00F0168103B90125236813F0807F99
:1012D00000D0012613F0200F40F01081236813F096
:1012E000100F0CD0844BD3F88C2022F08072C3F8FE
:1012F0008C20D3F88C20A16B0A43C3F88C20236880
:1013000013F4804F08D07C4AD2F8903023F4403355
:10131000616E0B43C2F89030236813F4004F08D07D
:10132000754AD2F8903023F44023A16E0B43C2F8E3
:101330009030236813F4803F08D06F4AD2F8903081
:1013400023F44013E16E0B43C2F89030236813F48A
:10135000003F08D0684AD2F8903023F44003216F50
:101360000B43C2F89030236813F0400F08D0624A54
:10137000D2F8903023F00303616C0B43C2F8903035
:10138000236813F0800F08D05B4AD2F8903023F026
:101390000C03A16C0B43C2F89030236813F4807FD8
:1013A00008D0554AD2F8903023F03003E16C0B435B
:1013B000C2F89030236813F4007F08D04E4AD2F868
:1013C000903023F0C003216D0B43C2F890302368A6
:1013D00013F4806F08D0484AD2F8903023F4407359
:1013E000616D0B43C2F89030236813F4006F08D08E
:1013F000414AD2F8903023F44063A16D0B43C2F808
:101400009030236813F4805F08D03B4AD2F89030C4
:1014100023F44053E16D0B43C2F89030236813F47A
:10142000005F08D0344AD2F8903023F44043216E54
:101430000B43C2F89030236813F4800F08D02E4A73
:10144000D2F8903023F08063A16F0B43C2F8903044
:10145000236813F4001F0DD0274AD2F8903023F0F0
:101460000063E16F0B43C2F89030E36FB3F1006F9C
:1014700000F0AA80236813F0080F00D0012513F4B0
:10148000802F08D01C4AD2F8903023F04073616F4F
:101490000B43C2F89030236813F4000F09D0164AAA
:1014A000D2F8903023F08053D4F880100B43C2F868
:1014B000903026B9236813F0007F00F005810E4AB2
:1014C000136823F08063136000F054FB06460A4B58
:1014D0001B6813F0006F79D000F04CFB801B642870
:1014E000F5D90320F3E00126C5E60126D5E601255E
:1014F000D7E60126E7E600BF003802407F4B1A6CB2
:1015000042F080521A641B6C03F080530193019BDC
:101510007B4A136843F48073136000F02BFB07468B
:10152000774B1B6813F4807F06D100F023FBC01BB0
:101530006428F5D90320CAE0704B1B6F13F4407385
:1015400015D0226B02F440729A4210D06B4B1A6F86
:1015500022F44072196F41F480311967196F21F438
:10156000803119671A671B6F13F0010F12D1236BBB
:1015700003F44072B2F5407F1DD0604A936823F4B3
:10158000F81393605D490B6F226BC2F30B02134398
:101590000B67A3E600F0EEFA0746584B1B6F13F0FB
:1015A000020FE4D100F0E6FAC01B41F28833984202
:1015B000F3D903208BE05148826822F4F812514994
:1015C00019400A438260DDE7012553E7236813F0E1
:1015D000010F13D0636B8BB9484AD2F88430D2F82C
:1015E0008410606803F4403343EA801301F07061B3
:1015F0000B43A16843EA0173C2F88430236813F4F3
:10160000002F03D0E26BB2F5801F06D013F4801FC9
:101610001ED0236CB3F5800F1AD1384AD2F884302B
:10162000D2F88410606803F4403343EA8013E06822
:1016300043EA006301F0E0410B43C2F88430D2F882
:101640008C3023F01F03616A01390B43C2F88C30E0
:10165000236813F0807F11D0284AD2F88400D2F892
:101660008410666823691B0443EA861300F07060E7
:10167000034301F0E0410B43C2F88430236813F0C8
:10168000007F0DD0626823691B0443EA8213E2687D
:1016900043EA0263A26843EA0273184AC2F884303C
:1016A000164A136843F08063136000F063FA06463D
:1016B000124B1B6813F0006F06D100F05BFA801B21
:1016C0006428F5D9032002E0012D02D0002003B0E8
:1016D000F0BD0A4A136823F08053136000F04AFA01
:1016E0000546064B1B6813F0005F0DD000F042FA70
:1016F000401B6428F5D90320E9E700BF0038024009
:1017000000700040FFFCFF0F236813F4002F01D08E
:10171000E26B22B113F4801F1DD0236CDBB9354A74
:10172000D2F88830D2F88810606903F4403343EA75
:101730008013A06943EA006301F0E0410B43C2F863
:101740008830D2F88C3023F4F853A16A013943EA87
:101750000123C2F88C30236813F4001F03D0E36F19
:10176000B3F1006F31D0236813F0080F19D0214A6C
:10177000D2F88810D2F88830606903F4403343EA25
:10178000801301F070610B43E16943EA0173C2F811
:101790008830D2F88C3023F44033E16A0B43C2F82E
:1017A0008C30144A136843F08053136000F0E2F960
:1017B0000446104B1B6813F0005F19D100F0DAF9F2
:1017C000001B6428F5D9032081E70A4AD2F8880073
:1017D000D2F888106569236A1B0443EA851300F078
:1017E0007060034301F0E0410B43C2F88830BAE770
:1017F00000206CE70038024000230F2B00F2EF803E
:1018000070B582B061E085685E000324B44025EACB
:101810000405CC68B4402C438460456825EA020581
:101820004C68C4F300129A402A4342605BE0DC0833
:10183000083450F8246003F0070295000F22AA40F4
:1018400026EA020E0A69AA4042EA0E0240F8242063
:101850005DE0092200E0002202FA0EF22A4302347F
:101860005F4D45F824205F4A94686FEA0C0224EA31
:101870000C054E6816F4801F01D04CEA0405594C43
:10188000A560E46802EA04054E6816F4001F01D062
:101890004CEA0405534CE560646802EA04054E68AE
:1018A00016F4003F01D04CEA04054E4C65602468F4
:1018B00022404D6815F4803F01D04CEA0402494CA7
:1018C000226001330F2B00F2888001229A400C68BD
:1018D00004EA020C32EA0404F3D14C6804F0030475
:1018E000013C012C8FD94A6802F00302032A09D077
:1018F000C4685D000322AA4024EA02048A68AA4060
:101900002243C2604A6802F00302022A8FD00468B0
:101910004FEA430E032202FA0EF224EA02044A6856
:1019200002F0030202FA0EF2224302604A6812F445
:10193000403FC6D02C4A546C44F480445464526CEA
:1019400002F480420192019A9C08A51C244A52F894
:10195000255003F003024FEA820E0F2202FA0EF224
:1019600025EA0205214A90423FF475AF02F58062F4
:10197000904222D002F58062904220D002F580622F
:1019800090421ED002F5806290421CD002F5806227
:1019900090421AD002F58062904218D002F580621F
:1019A000904216D002F58062904214D002F5806217
:1019B00090423FF44EAF0A224EE701224CE702224A
:1019C0004AE7032248E7042246E7052244E70622C5
:1019D00042E7072240E708223EE702B070BD7047A9
:1019E00000380140003C0140003802400000024045
:1019F0000AB181617047090481617047436901EA56
:101A0000030221EA030141EA0241816170470000BB
:101A100008B5054B5B69034200D108BD024B586114
:101A200001F02AFCF9E700BF003C014070B5044614
:101A3000866D00F09FF894F83530DBB2022B06D0AB
:101A400080236365002384F83430012070BD05468F
:101A50002268136823F0160313602268536923F089
:101A600080035361236CE3B12268136823F00803F9
:101A700013602268136823F00103136023681B6856
:101A800013F0010F11D000F075F8431B052BF5D9A9
:101A900020236365032084F83500002384F8343064
:101AA000D4E7A36C002BDFD1E3E7E26D3F23934043
:101AB000B360012384F83530002084F83400C5E792
:101AC00090F83530DBB2022B03D080234365012030
:101AD0007047052380F835300268136823F001034E
:101AE0001360002070470000024A136843F48073BB
:101AF000136070470070004010B504460E4B187814
:101B00004FF47A73B3FBF0F30C4A1068B0FBF3F0B8
:101B1000FFF728F868B90F2C01D901200AE000224C
:101B200021464FF0FF30FEF7D9FF054B1C60002027
:101B300000E0012010BD00BF0000002008000020D0
:101B40000400002008B50320FEF7B6FF0020FFF7D1
:101B5000D3FFFEF799FF002008BD0000034A11687B
:101B6000034B1B780B441360704700BF1C0600201A
:101B700000000020014B1868704700BF1C060020C1
:101B800038B50446FFF7F6FF0546B4F1FF3F02D033
:101B9000044B1B781C44FFF7EDFF401BA042FAD317
:101BA00038BD00BF00000020704770477047704785
:101BB000704770477047704770B4036A23F00103A1
:101BC0000362036A42688569124C2C400D68254304
:101BD00023F002048B6823430F4C104EB04218BF11
:101BE000A0420CBF0124002405D123F00803CE68D5
:101BF000334323F004032CB122F440724C691443A4
:101C00008A692243426085614A684263036270BC0C
:101C1000704700BF8CFFFEFF000001400004014040
:101C200070B4036A23F480730362036A4268C5696F
:101C3000144C2C400E68264323F400738C6843EA4E
:101C40000423114C114DA84218BFA0420CBF01241F
:101C5000002406D123F40063CD6843EA052323F46E
:101C600080633CB122F440524C6942EA04128C6910
:101C700042EA04124260C6614A68C263036270BCF1
:101C8000704700BF8CFFFEFF0000014000040140D0
:101C900070B4036A23F480530362036A4468C5691D
:101CA0000D4A2A400D6842EA052223F400538D684C
:101CB00043EA0533094E0A4DA84218BFB04204D189
:101CC00024F480444D6944EA85144460C2614A6842
:101CD0000264036270BC7047FF8CFFFE000001408D
:101CE0000004014070B4036A23F480330362036A82
:101CF0004468426D0D4D15400A682A4323F40033B1
:101D00008D6843EA05430A4E0A4DA84218BFB04207
:101D100004D124F480344D6944EA052444604265CA
:101D20004A688265036270BC704700BF8FFFFEFF88
:101D3000000001400004014070B4036A23F48013E2
:101D40000362036A4468456D0D4A2A400D6842EA01
:101D5000052223F400138D6843EA0553094E0A4D0A
:101D6000A84218BFB04204D124F480244D6944EA4B
:101D70008524446042654A68C265036270BC70474E
:101D8000FF8FFFFE000001400004014030B50368F2
:101D90003B4A904214BF4FF0000E4FF0010EB0F1DD
:101DA000804F14BF72464EF00102AAB9354CA042D2
:101DB00014BF00240124344DA8420DD064B904F1AD
:101DC000804404F58234A04214BF0024012405F5A8
:101DD0000065A84200D01CB123F070034C68234377
:101DE000002A33D1274A904214BF00220122264CF8
:101DF000A0422BD052BB02F1804202F582329042C7
:101E000014BF0022012204F50064A0421ED0EAB9EA
:101E10001E4A904214BF0022012204F59A34A042C7
:101E200014D09AB91A4A904214BF0022012204F534
:101E30000064A0420AD04AB9164A904214BF002258
:101E40000122A4F59634A04200D022B123F4407CB4
:101E5000CB6843EA0C0323F080034A691343036011
:101E60008A68C2620A6882620B4A904214BF734653
:101E70004EF001030BB10B6903630123436130BDD5
:101E80000000014000080040000400400044014000
:101E900000180040002000400004014070B4036AB4
:101EA00023F010030362036A42688569144C2C40D6
:101EB0000D6844EA052523F020038C6843EA0413E7
:101EC000104C114EB04218BFA0420CBF0124002498
:101ED00006D123F08003CE6843EA061323F04003C3
:101EE0003CB122F440624C6942EA84028C6942EAC5
:101EF0008402426085614A688263036270BC7047F5
:101F0000FF8CFFFE000001400004014038B590F84E
:101F10003C30012B00F0958004460D46012380F8EB
:101F20003C30142A00F28880DFE802F00B868686B7
:101F30001F86868634868686488686865D86868661
:101F400071000068FFF738FE2268936943F00803C8
:101F500093612268936923F0040393612268936973
:101F600029690B439361002067E00068FFF796FF43
:101F70002268936943F4006393612268936923F4B0
:101F80008063936122689369296943EA012393611D
:101F9000002052E00068FFF743FE2268D36943F057
:101FA0000803D3612268D36923F00403D361226854
:101FB000D36929690B43D36100203EE00068FFF735
:101FC00067FE2268D36943F40063D3612268D36952
:101FD00023F48063D3612268D369296943EA01232A
:101FE000D361002029E00068FFF77CFE2268536D72
:101FF00043F0080353652268536D23F004035365CF
:102000002268536D29690B435365002015E0006871
:10201000FFF792FE2268536D43F400635365226814
:10202000536D23F4806353652268536D296943EA35
:1020300001235365002000E00120002384F83C3098
:1020400038BD0220FCE70000154BC0F88430154B6A
:10205000C0F88830144BC0F88C30144BC0F8903066
:10206000134BC0F89430134BC0F89830124BC0F8A3
:102070009C30124BC0F8A030114BC0F8A430114B6B
:10208000C0F8A830104BC0F8AC30104BC0F8B030DE
:102090000F4BC0F8B4300F4BC0F8B830704700BFDA
:1020A000C1320008A91B0008B31B0008B51B0008BB
:1020B000AD1B0008AF1B0008AB1B00089D320008D9
:1020C000B11B0008B71B00087D2200087F22000812
:1020D0008122000883220008A0B310B5044690F8BE
:1020E0003D3013B3022384F83D30214651F8040BF0
:1020F000FFF74CFE012384F8483084F83E3084F822
:102100003F3084F8403084F8413084F8423084F81D
:10211000433084F8443084F8453084F8463084F8FD
:10212000473084F83D30002010BD80F83C30FFF788
:102130008BFF636E1BB1636E20469847D2E7024B5C
:102140006366F8E7012070473131000890F83C30B1
:10215000012B45D070B4012380F83C30022380F875
:102160003D3003685A689C681E4E1F4DAB4218BF35
:10217000B34203D122F470024D682A4322F0700268
:102180000D682A435A600368164AB3F1804F18BF9E
:10219000934217D0A2F57C42934213D002F580629D
:1021A00093420FD002F5806293420BD002F5784241
:1021B000934207D002F57052934203D0A2F59432B5
:1021C000934204D124F080048A6814439C60012364
:1021D00080F83D30002380F83C30184670BC7047D2
:1021E00002207047000001400004014090F83C309C
:1021F000012B3CD030B4012380F83C30CB6823F471
:1022000040738A68134323F480634A68134323F4BA
:1022100000630A68134323F480530A69134323F4C9
:1022200000534A69134323F480438A6A134323F417
:1022300070238A6943EA024302680E4D0E4CA242A3
:1022400018BFAA420CD123F470034C6A43EA04532A
:1022500023F08073CC69234323F00073096A0B4396
:102260005364002380F83C30184630BC704702208D
:10227000704700BF000001400004014070477047F4
:1022800070477047026852E8003F23F4907342E8B9
:1022900000310029F6D1026802F1080353E8003F3B
:1022A00023F00103083242E800310029F3D1036E24
:1022B000012B06D02023C0F88030002303668366FC
:1022C0007047026852E8003F23F0100342E80031F3
:1022D0000029F6D1EEE7704708B5026852E8003FE2
:1022E00023F0400342E800310029F6D12023C367E0
:1022F0000023C366FFF7EFFF08BD704708B5806B8A
:102300000023A0F85A30A0F85230FFF7F6FF08BDBE
:102310007047000038B504460168CB690D688868CD
:1023200040F60F021A4005D113F0200F02D015F02D
:10233000200F19D12AB110F001001BD1A84A154273
:1023400018D1226E012A00F0A58013F0800F03D06F
:1023500015F0800F40F0388113F0400F03D015F0D6
:10236000400F40F0388138BDA36E002BFBD02046D3
:102370009847F8E713F0010F0AD015F4807F07D0D3
:1023800001220A62D4F8842042F00102C4F88420B9
:1023900013F0020F09D040B1226802211162D4F873
:1023A000842042F00402C4F8842013F0040F09D002
:1023B00040B1226804211162D4F8842042F0020264
:1023C000C4F8842013F0080F0BD015F0200F00D1B3
:1023D00038B1226808211162D4F884200A43C4F875
:1023E000842013F4006F0CD015F0806F09D02268A0
:1023F0004FF400611162D4F8842042F02002C4F846
:102400008420D4F88420002AADD013F0200F06D009
:1024100015F0200F03D0A36E0BB120469847D4F8D7
:10242000842023689B6813F0400F02D112F0280F1C
:1024300029D02046FFF726FF23689B6813F0400F42
:102440001DD0226802F1080353E8003F23F0400347
:10245000083242E800310029F3D1636F5BB1614A71
:102460001A65606FFFF72CFB00283FF47CAF606FAC
:10247000036D984777E72046FFF73FFF73E7204655
:10248000FFF73BFF6FE72046FFF737FF0023C4F855
:10249000843068E713F0100F3FF457AF15F0100FBA
:1024A0003FF453AF10230B6223689B6813F0400F77
:1024B00050D0626F13685B689BB2002B3FF453AF40
:1024C000B4F8581099427FF64EAFA4F85A30D36949
:1024D000B3F5807F31D0226852E8003F23F4807347
:1024E00042E800310029F6D1226802F1080353E8DE
:1024F000003F23F00103083242E800310029F3D104
:10250000226802F1080353E8003F23F04003083239
:1025100042E800310029F3D12023C4F880300023A1
:102520002366226852E8003F23F0100342E800319E
:102530000029F6D1606FFFF779FA02236366B4F8D9
:102540005810B4F85A309BB2C91A89B22046FFF726
:10255000DFFE08E7B4F85810B4F85A309BB2C91A35
:1025600089B2B4F85A309BB2002B3FF4FCAE00297C
:102570003FF4F9AE226852E8003F23F4907342E83A
:1025800000300028F6D1226802F1080353E8003F2A
:1025900023F00103083242E800300028F3D1202361
:1025A000C4F8803000232366A366226852E8003F07
:1025B00023F0100342E800300028F6D102236366BE
:1025C0002046FFF7A5FECEE6E36E002B3FF4CBAE30
:1025D00020469847C7E62046FFF77EFEC3E600BFC9
:1025E00020010004FD22000810B50446836802693A
:1025F000134342691343C269134301680868934A4D
:10260000024013430B602268536823F44053E1688F
:102610000B435360A269236A1A4321688B6823F431
:10262000306313438B602368894A934219D0894AE7
:10263000934229D0884A93423ED0884A934262D03E
:10264000874A934271D0874A934200F08380864A3A
:10265000934200F09480854A934200F0A5801023B5
:102660003AE0834BD3F8903003F00303032B09D8EF
:10267000DFE803F00204AE0601232DE004232BE083
:10268000082329E0102327E0794BD3F8903003F09A
:102690000C030C2B0ED8DFE803F0070D0D0D090D10
:1026A0000D0D9D0D0D0D0B00002315E0042313E00F
:1026B000082311E010230FE06D4BD3F8903003F0A6
:1026C0003003202B00F0888019D8002B00F0868082
:1026D000102B40F085800423E069B0F5004F00F036
:1026E000AB80082B00F20C81DFE813F0E800FB0060
:1026F000E6000A01FE000A010A010A010101302B6D
:1027000070D10823E8E75A4BD3F8903003F0C003A8
:10271000802B69D005D8002B68D0402B68D10423CA
:10272000DAE7C02B66D10823D6E7514BD3F89030B7
:1027300003F44073B3F5007F5ED006D8002B5DD064
:10274000B3F5807F5CD10423C6E7B3F5407F59D150
:102750000823C1E7464BD3F8903003F44063B3F548
:10276000006F51D006D8002B50D0B3F5806F4FD1F9
:102770000423B1E7B3F5406F4CD10823ACE73C4BE1
:10278000D3F8903003F44053B3F5005F44D006D83B
:10279000002B43D0B3F5805F42D104239CE7B3F50F
:1027A000405F3FD1082397E7314BD3F8903003F4D3
:1027B0004043B3F5004F37D005D8BBB3B3F5804FD6
:1027C00036D1042388E7B3F5404F33D1082383E79C
:1027D000022381E702237FE702237DE700237BE7D3
:1027E000102379E7102377E7022375E7002373E7C7
:1027F000102371E710236FE702236DE700236BE7D7
:10280000102369E7102367E7022365E7012363E7E5
:10281000102361E710235FE702235DE700235BE7F6
:10282000102359E7102357E7022355E7002353E706
:10283000102351E710234FE7082B5BD8DFE803F0A4
:102840001A343A5A375A5A5A1E0000BFF369FFEF3A
:10285000001001400044004000480040004C00408F
:10286000005000400014014000780040007C00400F
:1028700000380240FEF7CAFC00283DD062685308C9
:1028800003EB4000B0FBF2F0A0F110024FF6EF7343
:102890009A4233D883B223F00F03C0F342001843A7
:1028A0002368D860002030E0FEF7C0FCE4E7FEF7C4
:1028B00087FBE1E71748E1E7164802E0FEF7A6FCD0
:1028C00000B3636800EB5300B0FBF3F0A0F110021B
:1028D0004FF6EF739A4217D8236880B2D860002071
:1028E00013E0FEF7A3FCEBE7FEF76AFBE8E74FF423
:1028F0000040E6E7012008E0002006E0012004E0B7
:10290000012002E0002000E001200023A366E3662E
:1029100010BD00BF0024F400436A13F0010F06D07D
:102920000268536823F40033816A0B435360436A9F
:1029300013F0020F06D00268536823F48033C16A93
:102940000B435360436A13F0040F06D002685368C8
:1029500023F48023016B0B435360436A13F0080F89
:1029600006D00268536823F40043416B0B43536065
:10297000436A13F0100F06D00268936823F4805363
:10298000816B0B439360436A13F0200F06D00268FB
:10299000936823F40053C16B0B439360436A13F0B5
:1029A000400F0AD00268536823F48013016C0B4374
:1029B0005360036CB3F5801F0BD0436A13F0800F94
:1029C00006D00268536823F40023816C0B435360E4
:1029D00070470268536823F4C003416C0B43536093
:1029E000EBE72DE9F84305460F4616469946DDF814
:1029F00020802C68E46937EA04030CBF4FF0010C17
:102A00004FF0000CB44555D1B8F1FF3FF1D0FFF7BE
:102A1000B1F8A0EB090040452ED8B8F1000F2BD03B
:102A20002B681A6812F0040FE3D0DA6912F4006F11
:102A3000DFD04FF400621A622A6852E8003F23F4A4
:102A4000D07342E800310029F6D12A6802F1080368
:102A500053E8003F23F00103083242E80031002927
:102A6000F3D12023EB67C5F88030C5F8843000230C
:102A700085F8783003201EE02A6852E8003F23F4EE
:102A8000D07342E800310029F6D12A6802F1080328
:102A900053E8003F23F00103083242E800310029E7
:102AA000F3D12023EB67C5F88030002385F8783018
:102AB000032000E00020BDE8F8832DE9F04182B05A
:102AC0001E46C36F202B4ED104460D469046002A69
:102AD00018BF002901D1012046E00023C0F884304E
:102AE0002123C367FFF746F80746A4F85080A4F8EF
:102AF0005280A368B3F5805F02D04FF0000811E068
:102B0000236913B34FF000080CE038F8023B226849
:102B1000C3F308039362B4F8522092B2013A92B21E
:102B2000A4F85220B4F852309BB28BB100963B46C9
:102B3000002280212046FFF754FFC0B9002DE4D0C9
:102B400015F8012B23689A62E5E7A8460025E9E716
:102B500000963B46002240212046FFF742FF40B945
:102B60002023E36700E0022002B0BDE8F0810320EB
:102B7000FAE70320F8E710B582B004460023C0F856
:102B80008430FEF7F7FF23681B6813F0080F0AD1A3
:102B90002023E367C4F8803000202066606684F854
:102BA000780002B010BD6FF07E4300930346002210
:102BB0004FF400112046FFF714FF0028E8D003204F
:102BC000EFE768B310B50446C36F03B32423E3678C
:102BD0002268136823F0010313602046FFF704FD09
:102BE000012813D0636ABBB92268536823F4904369
:102BF00053602268936823F02A0393602268136865
:102C000043F0010313602046FFF7B5FF10BD80F8C5
:102C10007830FDF75DFED9E72046FFF77DFEE3E75C
:102C20000120704770B58AB0002800F097800546F3
:102C3000046890F8BD343BB3032385F8BD34E36BDF
:102C400013F4807F01D100232B61286800F002F982
:102C50002C4654F8106BEC460FCCACE80F000FCCB0
:102C6000ACE80F0094E803008CE803002B1D0ECBAA
:102C7000304600F0B1F8044658B1022385F8BD345F
:102C8000012420460AB070BD80F8BC34FDF78AFEEE
:102C9000D2E70021286800F00FFA234616E003EB84
:102CA000C30205EB8202012182F83D1082F83C301C
:102CB000A2F84430002182F840109164D16403EB03
:102CC000C30205EB820251650133DBB269688B42B6
:102CD000E5D316E004EBC40305EB8303002283F87D
:102CE0007D2283F87C4283F88022C3F88822C3F8CF
:102CF0008C2204EBC40305EB8303C3F89422013454
:102D0000E4B2A142E6D82C4654F8106BEC460FCC46
:102D1000ACE80F000FCCACE80F0094E803008CE89F
:102D200003002B1D0ECB304600F0F0F8044660B9CE
:102D3000002385F83830012385F8BD346B6A012BF8
:102D400008D0286800F0A6F99BE7022385F8BD3477
:102D5000012496E7284600F003F8F2E7012490E703
:102D6000034602680121C0F80015002083F8F4042E
:102D7000936943F000639361516D024B0B435365BC
:102D8000704700BF0300001082B000230193019B35
:102D900001330193019A0F4B9A4215D80369002B16
:102DA000F5DA00230193036943F001030361019BFA
:102DB00001330193019A074B9A4208D8036913F033
:102DC000010FF4D1002000E0032002B0704703207F
:102DD000FBE700BF400D030084B010B5044603A814
:102DE00080E80E00089B012B1DD1A36B23F48033D8
:102DF000A363E268164B1340E360E36823F44013D7
:102E0000E3600F9B012B09D02046FFF7BDFF069B17
:102E1000012B14D0BDE8104004B07047E36843F4C0
:102E20008013E360F0E7E36843F04003E36020468B
:102E3000FFF7AAFFA36B43F48033A363E7E7A3681C
:102E400043F00603A360A36843F02003A360E1E717
:102E5000BFFFBDFF836823F001038360002070473C
:102E600082B000230193019B01330193019A0F4B20
:102E70009A4215D80369002BF5DA002301938901E2
:102E800041F020010161019B01330193019A074B3D
:102E90009A4208D8036913F0200FF4D1002000E013
:102EA000032002B070470320FBE700BF400D030082
:102EB00082B000230193019B01330193019A0E4BD1
:102EC0009A4213D80369002BF5DA002301931023EB
:102ED0000361019B01330193019A074B9A4208D881
:102EE000036913F0100FF4D1002000E0032002B0BA
:102EF00070470320FBE700BF400D0300D0F8003807
:102F00001943C0F8001800207047000084B02DE974
:102F1000F041044607A880E80E00002306E003F114
:102F2000400204EB82020021516001330E2BF6D9DE
:102F3000119F27BBD4F8043843F00203C4F80438C7
:102F4000A36B23F40013A363236843F040032360BF
:102F5000236843F0800323600023C4F8003E04F597
:102F60000065D4F80038C4F800380C9B012B10D150
:102F7000099B4BB900212046FFF7C0FF0DE0A36B72
:102F800043F40013A363E7E701212046FFF7B6FFF0
:102F900003E003212046FFF7B1FF10212046FFF791
:102FA0005FFF804608B14FF001082046FFF780FF21
:102FB00008B14FF0010800232B616B61EB610AE05F
:102FC000C3B94FF00060C2F8000900220A614FF651
:102FD0007F328A6001330799994210D904EB43127A
:102FE00002F51061D2F800090028E9DB0020C2F8E0
:102FF0000009EAE74FF09040C2F80009E5E7002336
:103000000AE0C3B14FF0904CC2F800CB002202613D
:103010004FF67F3282600133994211D904EB43129B
:1030200002F53060D2F8006B002EEADB4FF0000CA6
:10303000C2F800CBEAE74FF0006CC2F800CBE5E73E
:103040002B6923F480732B610023A3616FF080430D
:1030500063610A9B1BB9A36943F01003A361A269D2
:103060000A4B1343A3610D9B1BB1A36943F00803F3
:10307000A361012F04D04046BDE8F04104B0704781
:10308000A269034B1343A361F5E700BF00383C80FE
:1030900004000040D0F8003E23F00303C0F8003ED7
:1030A000D0F8043843F00203C0F804380020704719
:1030B000406900F00100704738B50546C36823F049
:1030C000C043C360012913D019BBC36843F08043D8
:1030D000C36000240120FEF753FD01342846FFF7AA
:1030E000E7FF08B1312CF5D9322C14D0002038BDBF
:1030F000C36843F00053C36000240120FEF740FD85
:1031000001342846FFF7D4FF0128EDD0312CF4D943
:10311000EAE70120EBE70120E9E70000034AD2F8E3
:10312000883043F47003C2F88830704700ED00E047
:103130000268094B9A4200D0704782B003F59C3375
:103140005A6C42F001025A645B6C03F00103019374
:10315000019B02B0704700BF0000014000B587B07E
:1031600000230193029303930493059302680E4B8B
:103170009A4202D007B05DF804FB03F59C331A6B4A
:1031800042F010021A631B6B03F010030093009BC4
:103190004FF400730193022302930123059301A9C5
:1031A0000248FEF729FBE5E700000140001002405D
:1031B00010B596B000241394149415940C940D94A7
:1031C0000E940F941094119412942C22214601A86D
:1031D00000F0D6F82648274B0360446084604FF621
:1031E000FF73C360046144618461FEF775FF0028CA
:1031F00031D1002313931493159313A91C48FEF7A0
:10320000A5FF00282AD160230C9300220D920E9274
:103210000F921092119212920CA91548FEF776FEA9
:10322000F8B90023019302930393049305934FF499
:1032300000520692079308934FF0007209920A9386
:103240000B9301A90A48FEF7D1FF68B90848FFF7B8
:1032500085FF16B010BDFDF7B5F9CAE7FDF7B2F965
:10326000D1E7FDF7AFF9DCE7FDF7ACF9EEE700BF1A
:10327000200600200000014038B50546064B5C687A
:1032800003E029460020984764681CB12368002B9E
:10329000F7D1F9E738BD00BFDC06002038B5054698
:1032A000064B9C6803E029460020984764681CB1DF
:1032B0002368002BF7D1F9E738BD00BFDC060020FA
:1032C00038B50546064BDC6803E0294600209847E0
:1032D00064681CB12368002BF7D1F9E738BD00BF43
:1032E000DC060020DFF834D00D480E490E4A0023DA
:1032F00002E0D458C4500433C4188C42F9D30B4AAA
:103300000B4C002301E013600432A242FBD3FFF711
:1033100005FF00F011F8FDF7ABF97047000005203C
:103320000000002070000020003D00087000002018
:1033300000070020FEE7000070B50D4D0D4C641B2A
:10334000A4100026A64209D10B4D0C4C00F09CFCA9
:10335000641BA4100026A64205D170BD55F8043B9D
:1033600098470136EEE755F8043B98470136F2E7F7
:10337000F83C0008F83C0008F83C0008FC3C000859
:1033800002440346934200D1704703F8011BF9E75A
:1033900037B5002944D051F8043C0190002BA1F12D
:1033A0000404B8BFE41800F003F91E4A019813683A
:1033B00033B96360146003B0BDE8304000F0FEB87C
:1033C000A34208D9256861198B4201BF19685B685F
:1033D00049192160EDE71A465B680BB1A342FAD99F
:1033E00011685518A5420BD1246821445418A342F2
:1033F0001160E0D11C685B68536021441160DAE71A
:1034000002D90C230360D6E7256861198B4204BFFB
:1034100019685B68636004BF491921605460CAE79A
:1034200003B030BDEC06002070B50E4E0C4631687E
:10343000054611B900F08CF830602146284600F0AE
:1034400087F8431C0AD0C41C24F00304A04207D010
:10345000211A284600F07CF8013001D14FF0FF34EA
:10346000204670BDF00600202DE9F041CD1C25F06E
:10347000030508350C2D38BF0C25002D074601DB50
:10348000A94205D90C233B6000263046BDE8F081F7
:103490002E4E00F08DF833681C4634BB2946384662
:1034A000FFF7C2FF431C04464DD134682646002E68
:1034B00040D123683146384604EB030800F048F851
:1034C00080453AD1216803356D1A25F0030508358A
:1034D0000C2D38BF0C2529463846FFF7A5FF0130D3
:1034E0002BD023682B4423600EE02268521B1ED48D
:1034F0000B2A16D96119A342256018BF5960636869
:1035000008BF316062514B60384604F10B0600F091
:1035100055F826F00706231DF21AB6D09B1BA350C0
:10352000B3E76268A3420CBF32605A60ECE72346FF
:103530006468B2E734467668B9E70C233B603846E6
:1035400000F03CF8A1E72560DEE700BFEC060020B4
:1035500038B5064D0023044608462B6000F086FB74
:10356000431C02D12B6803B1236038BDF406002050
:103570000EB400B59CB01DAB029006906FF00041F8
:10358000094807910491094953F8042B05910068F3
:10359000019302A900F074F8029B00221A701CB07B
:1035A0005DF804EB03B070470C0000200802FFFF39
:1035B000014800F0F9BA00BFF8060020014800F009
:1035C000F4BA00BFF80600202DE9F0478E689E424D
:1035D00082460C4690461F4638D88A8912F4906F6E
:1035E00032D025680969A5EB0109656905EB450538
:1035F00005EBD57501334B446D109D4238BF1D4618
:10360000530531D52946FFF72FFF064650B90C2345
:10361000CAF80030A38943F04003A3814FF0FF3084
:10362000BDE8F08721694A4600F0C0FAA38923F477
:10363000906343F08003A381266165614E44A5EB4E
:1036400009052660A5603E46BE4200D93E46206878
:103650003246414600F0B8FAA3689B1BA36023687A
:10366000334423600020DBE72A4600F0C7FA064611
:103670000028E1D121695046FFF78AFEC7E7000024
:103680002DE9F04F98468B891B069DB007460D46E5
:1036900014460ED50B6963B94021FFF7E5FE28609B
:1036A000286120B90C233B604FF0FF30D1E040236C
:1036B0006B610023099320238DF82930CDF80C800D
:1036C0003023DFF8A8818DF82A304FF00109234616
:1036D0009A4613F8012B0AB1252AF9D1BAEB040B4B
:1036E0000BD05B46224629463846FFF76DFF013076
:1036F00000F0AA80099A5A4409929AF80030002BE7
:1037000000F0A28000234FF0FF32CDE905230AF13B
:10371000010A049307938DF853301A9354460522F7
:1037200014F8011B5148FCF77BFD049AD8B9D00668
:1037300044BF20238DF85330110744BF2B238DF84D
:1037400053309AF800302A2B15D0079A544600209F
:103750004FF00A0C214611F8013B303B092B4ED9A2
:10376000B0B1079214E0A0EB080309FA03F3134386
:103770000493A246D2E7039B191D1B680391002BFB
:10378000BBBF5B4242F0020207930793B8BF0492AB
:1037900023782E2B0CD163782A2B35D1039B1A1D4D
:1037A0001B680392002BB8BF4FF0FF330234059320
:1037B000DFF8C8A0217803225046FCF731FD40B164
:1037C0004023A0EB0A0003FA00F0049B03430134FA
:1037D000049314F8011B26488DF828100622FCF7E4
:1037E0001FFD002838D0234B1BBB039B073323F05E
:1037F000070308330393099B3344099367E70CFBE2
:1038000002320C460120A5E7002301340593194636
:103810004FF00A0C204610F8012B303A092A03D940
:10382000002BC5D00591C3E70CFB01210446012301
:10383000F0E703AB00932A460F4B04A93846AFF3D9
:103840000080421C0646D6D1AB895B063FF52CAF03
:1038500009981DB0BDE8F08F03AB00932A46064BD4
:1038600004A9384600F07AF8EBE700BFBC3C00083A
:10387000C63C000800000000C9350008C23C000832
:103880002DE9F047164699468A680B69DDF82080D5
:103890009342B8BF1346336091F8432007460C4665
:1038A0000AB1013333602368990642BF336802339B
:1038B0003360256815F0060506D104F1190AE3689E
:1038C00032689B1AAB4226DC94F84320131E226810
:1038D00018BF012392062BD404F14302494638460F
:1038E000C04701301ED02368E568326803F0060344
:1038F000042B08BFAD1AA36822690CBF25EAE57541
:1039000000259342C4BF9B1AED1800261A34B54215
:103910001AD1002008E00123524649463846C047E4
:10392000013003D14FF0FF30BDE8F0870135C6E725
:10393000E1185A1C302081F84300224494F84510C5
:1039400082F843100233C7E701232246494638462E
:10395000C0470130E6D00136D9E700002DE9FF4726
:103960000F7E0C9D782F914680460C469A4601F1B9
:10397000430207D8622F0AD8002F00F0D880582FB2
:1039800000F0A38004F1420584F842703AE0A7F108
:103990006303152BF6D801A151F823F0F53900087F
:1039A000093A00088539000885390008853900087A
:1039B00085390008093A000885390008853900086A
:1039C0008539000885390008153B0008393A000898
:1039D000F73A00088539000885390008373B0008A8
:1039E00085390008393A000885390008853900080A
:1039F000FF3A00082B681A1D1B682A6004F1420573
:103A000084F842300123A3E020682968060601F10A
:103A100004030AD50E682B60002E03DA2D237642AC
:103A200084F843305E480A2319E00E682B6010F0DA
:103A3000400F18BF36B2EFE72B682068191D2960C8
:103A4000010601D51E6802E04606FBD51E885448D3
:103A50006F2F0CBF08230A23002184F843106568E8
:103A6000A560002DA2BF216821F0040121600EB9DC
:103A7000002D4DD01546B6FBF3F103FB1167C75D72
:103A800005F8017D3746BB420E46F4D9082B0BD111
:103A90002368DE0708D5236961689942DEBF3023B9
:103AA00005F8013C05F1FF35521B2261CDF800A05D
:103AB0004B4603AA21464046FFF7E2FE01304CD1B7
:103AC0004FF0FF3004B0BDE8F087354881F845700D
:103AD0002968236851F8046B29601D0614D5DF0797
:103AE00044BF43F0200323601EB9236823F0200362
:103AF00023601023B0E7236843F02003236078237A
:103B0000284884F84530E3E7590648BFB6B2E6E7EF
:103B10001546BBE72B6826686169181D28603506C5
:103B20001B6801D5196002E07006FBD519800023DF
:103B300023611546BAE72B681A1D2A601D68626862
:103B400000212846FCF76CFB08B1401B60606368ED
:103B50002361002384F84330A8E723692A464946B5
:103B60004046D0470130ABD023689B0713D4E068B0
:103B7000039B9842B8BF1846A4E701233246494642
:103B80004046D04701309BD00135E36803995B1A6A
:103B9000AB42F2DCEBE7002504F11906F5E700BFC4
:103BA000CD3C0008DE3C0008704770470A44914253
:103BB00000F1FF3300D1704710B511F8014B03F845
:103BC000014F9142F9D110BD884210B501EB0204BA
:103BD00002D98442234607D8431EA14208D011F8D7
:103BE000012B03F8012FF8E7024401468A4200D175
:103BF00010BD13F8014D02F8014DF7E72DE9F04132
:103C0000804614460E4621B9BDE8F0411146FFF743
:103C10002BBC2AB9FFF7BCFB25462846BDE8F0813E
:103C200000F01BF88442074602D8B4EB500F12D8BC
:103C300021464046FFF718FC05460028EDD0BC425F
:103C40002246314628BF3A46FFF7B0FF314640468C
:103C5000FFF79EFBE1E73546DFE751F8043C181F0C
:103C6000002BBCBF0B58C01870470000044A054920
:103C70001368002B08BF0B461844106018467047A5
:103C8000FC06002000070020F8B500BFF8BC08BC07
:103C90009E467047F8B500BFF8BC08BC9E4670470A
:103CA00025640A0000000000000000000102030477
:103CB000060708090000000001020304232D302B31
:103CC0002000686C4C00656667454647003031321D
:103CD0003334353637383941424344454600303174
:103CE00032333435363738396162636465660000D3
:083CF00000C6FF7F0100000087
:043CF800F5010008CA
:043CFC00D1010008EA
:103D000001000000100000000024F400100000205A
:103D100000000000000000000000000000000000A3
:103D20000000000000000000000000000000000093
:103D30000000000000000000000000000000000083
:103D40000000000000000000000000000000000073
:103D50000000000000000000000000000000000063
:103D60000000000000000000000000000000000053
:04000005080032E5D8
:00000001FF
